:1000000012C0189518951895189518951895189563
:100010001895189518951895189518951895189578
:100020001895189518958FED8DBFC8EBE0EA4E2E08
:10003000DD275D2EA89584B7082E877F84BF88E1D1
:10004000992781BD91BDEEE7F0E0A0E6B0E08827FA
:100050008D933197E9F7662480E081BB8FEF87BBF2
:1000600074B7777F74BF8EE181BD86E081BD8099D2
:1000700003C081E080936200819903C082E0809395
:10008000620000916200003009F001C0C39AC09A7A
:1000900084E690E033D314D2C0980091630001301D
:1000A00009F007C080E08093630081B5886081BD5E
:1000B00005C084E690E022D303D2E9CF009163002B
:1000C000013081E009F080E08F93009165000030FD
:1000D00081E009F080E09F918923882309F44BC0D7
:1000E00080E080936300C09881E080936900009174
:1000F0006900073010F009F03CC0C19AC29881E055
:1001000080936C0000916C000F3010F009F00AC071
:1001100084E690E0F3D2D4D1ACE68C918F5F8C93DF
:1001200008F4F0CF00916300013009F001C0B6C1BE
:10013000C198C29A81E080936C0000916C000F30EE
:1001400010F009F00AC084E690E0D8D2B9D1ACE64C
:100150008C918F5F8C9308F4F0CF00916300013095
:1001600009F001C09BC1A9E68C918F5F8C9308F4C4
:10017000BECFC198C29800916300013081E009F0C0
:1001800080E08F9300916500013081E009F080E00C
:100190009F918923882309F409C080E0809363003C
:1001A00080E08093680080E08093650000916800A3
:1001B000023081E009F080E08F930091650000300B
:1001C00081E009F080E09F918923882309F478C0B9
:1001D000A0E30C9102FB81E00EF080E08F93A0E39E
:1001E0000C9106FB81E00EF080E09F91892B882323
:1001F00009F407C08AE08093640080E0809368007F
:100200005DCF80E080936B0081E080936900009176
:1002100069000C3310F009F044C0C09AC19AC39A27
:1002200084E690E06BD2C3984BD184E690E066D22E
:1002300047D184E690E062D2869B01C0C39A40D148
:1002400084E690E05BD23CD184E690E057D238D18E
:10025000C098C19884E690E051D232D184E690E013
:100260004DD22ED184E690E049D2C39829D184E6BC
:1002700090E044D225D184E690E040D221D1009193
:100280006300013009F007C080E08093630080E0E4
:100290008093680013CFA9E68C918F5F8C9308F44C
:1002A000B6CF829B07C08AE08093640080E0809391
:1002B000680004CF81E08093650085E08093610051
:1002C00000916500013009F001C0C69A00916500F7
:1002D000013081E009F080E08F93009168000230E6
:1002E00081E009F080E09F918923882309F40BC005
:1002F00000916A00003009F003C08AE080936A0030
:10030000829B01C021C000916500003009F015C03A
:10031000C69800916B00013009F001C0C09A0091AD
:100320006800013009F009C08AE080936A0081E02A
:100330008093650085E08093610084E690E0DED1E3
:10034000BFD0BCCEF894FFCF81E0809369000091CC
:1003500069000E3110F009F04BC0C09AC29AC39ADE
:1003600084E690E0CBD1C098ABD084E690E0C6D1D3
:10037000C09AA6D084E690E0C1D1C098A1D084E60E
:1003800090E0BCD1C09A9CD084E690E0B7D1C098F0
:10039000C298C39895D084E690E0B0D191D084E61D
:1003A00090E0ACD18DD08CD084E690E0A7D188D0FD
:1003B00084E690E0A3D184D084E690E09FD180D001
:1003C00000916300013009F00AC080E0809363006F
:1003D00080E08093680080E0809365006FCE869B0C
:1003E00001C006C0A9E68C918F5F8C9308F4AFCF53
:1003F00081E080936900009169000C3310F009F0EE
:1004000049C081E080936B00C09AC39AC49A84E685
:1004100090E074D1C09854D084E690E06FD1C09A37
:100420004FD084E690E06AD1C0984AD084E690E04C
:1004300065D1C09A45D084E690E060D1C098C39859
:1004400084E690E05BD13CD084E690E057D138D090
:1004500084E690E053D134D084E690E04FD130D0A0
:1004600084E690E04BD12CD000916300013009F07C
:100470000BC080E080936300C49880E080936800A4
:1004800080E0809365001ACEA9E68C918F5F8C93F3
:1004900008F4B1CFC49812CEF894FFCF80E08093D7
:1004A0006300C19B03C081E080936800C29B03C0CE
:1004B00082E080936800C198C29800CEF894FFCF84
:1004C000A0E30C9100FB81E00EF480E08F93A0E3A9
:1004D0000C9101FB81E00EF080E09F9189238F93C6
:1004E00000916200023081E009F080E09F91892351
:1004F000882309F406C081E08093620081E0809344
:100500006300A0E30C9100FB81E00EF080E08F938C
:10051000A0E30C9101FB81E00EF480E09F91892320
:100520008F9300916200013081E009F080E09F919B
:100530008923882309F406C082E08093620081E069
:1005400080936300A0E30C9104FB81E00EF480E053
:100550008F9300916600003081E009F080E09F9168
:100560008923882309F414C081E0809366000091F8
:100570006800013009F004C081E08093630008C086
:1005800000916800003009F003C081E080936800AA
:10059000849B03C080E080936600A0E30C9105FB80
:1005A00081E00EF480E08F9300916700003081E0DD
:1005B00009F080E09F918923882309F414C081E029
:1005C0008093670000916800023009F004C081E068
:1005D0008093630008C000916800003009F003C0F8
:1005E00082E080936800859B03C080E08093670071
:1005F000A0E30C9103FB81E00EF480E08F93009167
:100600006400003081E009F080E09F918923882315
:1006100009F403C08AE080936400009164000A300A
:1006200009F001C0C39A00916400073009F001C0CD
:10063000C39800916400003010F009F001C004C0BC
:10064000A4E68C9181508C9300916100053009F0F3
:1006500001C0C59A00916100023009F001C0C5983F
:1006600000916100003010F009F001C004C0A1E663
:100670008C9181508C9300916A000A3009F001C07E
:10068000C09A00916A00093009F001C0C098009139
:100690006A00003010F009F001C004C0AAE68C9195
:1006A00081508C9300916000003010F009F001C07F
:1006B00004C0A0E68C9181508C93009160000630BC
:1006C00009F001C0C79A00916000013009F001C033
:1006D000C79800916000003009F003C085E1809365
:1006E0006000A8950895F894FFCF3197F1F7089529
:1006F000689462F80895E89462F80895EF93FF9380
:10070000EE27E82BE92B31F0E0EDF7E03197F1F738
:0A0710000197D1F7FF91EF910895D2
:00000001FF
